:020000040800F2
:10000000C8B202249D03000849B30008818D00088E
:1000100041B3000879130008790D010800000000C1
:1000200000000000000000000000000009E50008DA
:10003000D117000800000000B9CF000811F2000835
:10004000BB030008BB030008BB030008BB03000898
:10005000BB030008BB030008BB030008BB03000888
:10006000BB030008BB030008BB03000881130008A2
:1000700091130008BB030008BB030008BB03000882
:10008000BB030008BB030008BB030008BB03000858
:10009000BB030008BB030008BB030008BB03000848
:1000A000BB030008BB030008BB030008BB03000838
:1000B000BB030008BB030008BB030008BB03000828
:1000C000BB030008BB030008BB030008BB03000818
:1000D000BB030008690D0108BB030008BB0300084F
:1000E000BB030008BB03000800000000BB030008BE
:1000F000BB030008BB030008BB030008BB030008E8
:10010000BB030008BB030008BB030008BB030008D7
:10011000E1F30008BB030008BB030008BB030008B1
:10012000BB030008BB030008BB030008BB030008B7
:10013000BB030008BB030008BB030008BB030008A7
:1001400000000000000000000000000000000000AF
:10015000BB030008BB030008BB030008BB03000887
:10016000BB030008BB030008BB030008BB03000877
:10017000BB030008BB030008BB030008000000002D
:10018000BB030008BB030008BB030008BB03000857
:10019000BB030008BB030008BB030008BB03000847
:1001A000BB030008BB030008BB030008BB03000837
:1001B000BB030008BB030008BB030008BB03000827
:1001C000BB030008BB030008BB030008BB03000817
:1001D000BB030008BB030008BB030008BB03000807
:1001E000BB030008BB030008BB030008BB030008F7
:1001F000BB030008BB030008BB030008BB030008E7
:10020000BB030008BB030008BB030008BB030008D6
:10021000BB030008BB030008BB030008BB030008C6
:10022000BB030008BB030008BB030008000000007C
:1002300011D20008BB03000800000000BB03000847
:10024000BB030008BB030008BB030008BB03000896
:10025000BB030008BB030008BB030008BB03000886
:10026000BB030008BB030008BB030008BB03000876
:10027000BB030008BB030008BB030008000000002C
:10028000BB030008BB030008BB030008000000001C
:1002900000000000BB03000800F002F800F06EF858
:1002A00014A696E8000CB244B344DA4501D100F03C
:1002B00065F8BAE80F000FA696E83000A5EB040534
:1002C00004EB0607AAEB0704A7F101074FEA15158F
:1002D0004FEA3414A4F10104AC4201D300F04EF80B
:1002E00013F0010F18BFFB1A43F0010300F001F8EF
:1002F000DBE71847C4460100E4460100103A24BF7A
:1003000078C878C1FAD8520724BF30C830C144BF7A
:1003100004680C6070470000704700000023002450
:1003200000250026103A28BF78C1FBD8520728BF05
:1003300030C148BF0B607047662912F02A826429D9
:1003400000F04E81752900F04B81782900F08481FE
:10035000632900F0F485732900F0F98500207047C7
:100360001FB512F009FA00F0F7FD0400002000218B
:1003700012F0ECF9E0601FBD10B510BD00F0ECFE0E
:100380001146FFF7EDFF10F02BFF00F00AFF03B45A
:10039000FFF7F2FF03BC00F04DFF00000A48804762
:1003A0000A4880470A480047FEE7FEE7FEE7FEE707
:1003B000FEE7FEE7FEE7FEE7FEE7FEE70548064943
:1003C000064A074B70470000E1170008F1F20008E9
:1003D00099020008C8900224C8B20224C8920224DC
:1003E000C892022453EA020C00F069802DE9F04B18
:1003F0004FF00006002B1FBFB3FA83F503FA05F494
:1004000024FA05F65E4012BF1643B2FA82F502FAEC
:1004100005F4C5F120051EBF22FA05FC44EA0C04D0
:10042000203556EA044C4FEA144418BF641C4FF0C0
:1004300000084FF00009904271EB030C39D30029FA
:1004400019BFB1FA81F701FA07F6B0FA80F700FA9E
:1004500007F6C7F120071EBF20FA07FC46EA0C0684
:100460002037B6FBF4FCA7EB0507103F07F01F0B86
:10047000CBF120062CFA06F60CFA0BFB44BFB34670
:100480000026202FA4BF5E464FF0000B5BEA060C4F
:1004900008BF4FF0010B19EB0B0948EB0608ABFB4B
:1004A000027C06FB02CC0BFB03CCC01B71EB0C01E6
:1004B000C1E70B46024641464846BDE8F08B13B5FE
:1004C000084318BF4FF0FF300146AFF30080BDE88E
:1004D0001C4070470FB41CB5084B06AA7B44694604
:1004E0000090059800F001FD04460020694600F0E8
:1004F0000FFD20461CBC5DF814FB0000310A000013
:100500000FB41CB50C0007AA009007D04142A142CD
:1005100002D32044401E01E04FF0FF30074B7B44E4
:1005200069460190069800F0E0FC0021002C01D003
:10053000009A11701CBC5DF814FB0000F909000062
:1005400070B5044685690068C10601D5302600E013
:100550002026C00707D070BDD4E90121304690475E
:10056000206A401C20626D1EF6D570BD70B5044631
:1005700085690078C00707D170BDD4E9012120202A
:100580009047206A401C20626D1EF6D570BD70B584
:100590000C460546012A05D02878800600D5EA6970
:1005A000002302E0012305E05B1C934202D2E05CE1
:1005B0000028F9D1A869E618C01AA861286A184469
:1005C00028622846FFF7BCFF04E0D5E9012114F8B2
:1005D000010B9047B442F8D32846FFF7C7FF70BD20
:1005E0002DE9F0410646002410687529314616A50C
:1005F00010D0AFF30080002802DA404213A507E0D4
:1006000031688A0701D512A502E0490704D511A572
:10061000012401E0AFF3008000210A2206F1240743
:1006200009E0B0FBF2FCB0FBF2F302FB1C0030303F
:1006300078541846491C0028F3D123462A463046F0
:10064000BDE8F04100F0E4B9000000002D0000001A
:100650002B0000002000000070B504460D46214626
:100660001068AFF300802188090502D50F4A7A444B
:1006700002E00E4A7A440E32002104F1240305E020
:1006800000F00F060009965D5E54491C0028F7D162
:1006900020780023000704D5702D02D009B1022371
:1006A00011322046BDE8704000F0B2B924210100AB
:1006B0002DE9F05F894604464FF0000ADFF874B177
:1006C000FB44C0F820A02046E1688847002874D089
:1006D000252806D0D4E901219047206A401C2062D9
:1006E000F1E700265F462046E16888472028054656
:1006F00007DB312D05D2781910F8200C08B106431C
:10070000F1E7B00701D526F00406C4F81CA00027C5
:10071000C4F818A02A2D09D0284612F00FF838B3D3
:1007200004EB8708303DC8F8185019E059F8041B4D
:10073000204604EB87029161E1688847012F054656
:1007400018D1E069002820DA26F020061DE0D8F84C
:10075000180000EB800005EB40003038C8F81800A6
:100760002046E1688847054611F0E8FF0028EED1F1
:10077000012F0AD02E2D08D12046E16888477F1C22
:100780000546022F46F02006C4DBA069002803DAE4
:10079000404246F00106A061F00701D026F01006A5
:1007A0006C2D0BD0682D09D04C2D39D06A2D35D049
:1007B000742D35D07A2D33D016E038E0E1682F461D
:1007C00020468847B842054609D16C2F26D04FF401
:1007D0008060E168064320468847054604E06C2FA8
:1007E0001AD04FF4807006430DB3A5F141001928CB
:1007F00002D8203546F400664A462946204626603F
:100800004E46FFF799FD80B101280BD0F61D26F06A
:10081000070000F1080956E74020E4E78020D8E708
:100820000020D6E706F104094DE7284652E7206A82
:10083000BDE8F09FFA20010040EA010310B59B07D4
:100840000FD1042A0DD310C808C9121F9C42F8D03A
:1008500020BA19BA884201D9012010BD4FF0FF30EB
:1008600010BD1AB1D30703D0521C07E0002010BD01
:1008700010F8013B11F8014B1B1B07D110F8013B8D
:1008800011F8014B1B1B01D1921EF1D1184610BD6E
:1008900010B5431C02E010F8011B71B18107FAD1B9
:1008A0004FF0013202C88C1A8C4314EAC211F9D0FD
:1008B000C01A0A0603D0C01E10BDC01A10BD0A041B
:1008C00001D0801E10BD0902FCD0401E10BD032ABD
:1008D00040F2308010F0030C00F0158011F8013B5D
:1008E000BCF1020F624498BF11F801CB00F8013B44
:1008F00038BF11F8013BA2F1040298BF00F801CB08
:1009000038BF00F8013B11F0030300F02580083ADE
:10091000C0F0088051F8043B083A51F804CBA0E835
:100920000810F5E7121D5CBF51F8043B40F8043B8A
:10093000AFF30080D20724BF11F8013B11F801CBBF
:1009400048BF11F8012B24BF00F8013B00F801CB90
:1009500048BF00F8012B704710B5203AC0F00B805B
:10096000B1E81850A0E81850B1E81850A0E81850A5
:10097000203ABFF4F5AF5FEA027C24BFB1E818501B
:10098000A0E8185044BF18C918C0BDE810405FEA7D
:10099000827C24BF51F8043B40F8043B08BF7047F9
:1009A000D20728BF31F8023B48BF11F8012B28BFFE
:1009B00020F8023B48BF00F8012B70474FF00002BF
:1009C00000B5134694469646203922BFA0E80C5045
:1009D000A0E80C50B1F12001BFF4F7AF090728BF20
:1009E000A0E80C5048BF0CC05DF804EB890028BF9C
:1009F00040F8042B08BF704748BF20F8022B11F0C5
:100A0000804F18BF00F8012B704770477047704740
:100A10002DE9F0470D4699469246044600F1240818
:100A20000168880604D5E06921F01001216000E02A
:100A30000120A84201DD471B00E00027A1697A19C7
:100A400002EB0900081AA0612078C00602D42046F3
:100A5000FFF776FD002608E0D4E901211AF8060028
:100A60009047206A401C761C20624E45F4DB2078BB
:100A7000C0060AD52046FFF763FD06E0D4E9012150
:100A800030209047206A401C2062381EA7F10107E1
:100A9000F4DC07E0D4E9012118F805009047206A4A
:100AA000401C2062281EA5F10105F3DC2046FFF75B
:100AB0005DFD2078000602D50220BDE8F087012008
:100AC000FBE72DE9FF4F0C461E464FF0FF378BB07A
:100AD000D2E90001DDF860800A908A46C1F30A5528
:100AE00005B93D46002108464FF00000BAF1000F5D
:100AF00000F4400005DA00EB80004FF4400101EA09
:100B000050004FEA9059B9F1010F00DDB9460A983B
:100B100050EA4A000ED044F61050A5F2FF35454386
:100B20002F14B8F1000F1ED07542291E1EDDC9F129
:100B300000021CE0B8F1010F4FF0000001D030219D
:100B400003E0F24305E02154401CB042FBDB304699
:100B50000022002121540B99C1F80880C1E900202E
:100B60000FB0BDE8F08FBD1B6D1CDEE74A4600DA12
:100B7000694206A800F07AFA06AB93E8070003ABD7
:100B800083E8070050460A9911F0F8F98DE807004C
:100B9000A0F500501F3800900398002D0ADD42F2A6
:100BA0001F014A460844002303A90390684611F038
:100BB00061FC09E0A0F500504A461F38002303A954
:100BC0000390684611F06BFC8DE807000004000CF0
:100BD00003D04FF0FF30410800E01046B8F1000F9D
:100BE00003D00022009215461EE0751E05D400F0C9
:100BF000B7F9303262556D1EF9D5B346012208436C
:100C000002D000227F1C04E02078302801D100228D
:100C10007F1E002A099784D01DE0112D07DA00F00D
:100C20009FF9303262556D1C50EA0102F5D108433C
:100C300002D00098C8B10EE00021681E05E0235CD8
:100C4000625C63542254401E491C8142F7DBAB4670
:100C5000A81B401E0990002004F80B000B98099A6D
:100C6000C0F80880C0E9002B7AE711264FF0000891
:100C700057E72DE9F04F88460446D21D22F00701C0
:100C800091B0D1E90001CDE90A0111F03FFD024622
:100C90000B98C00F01D02D2007E02068810701D5F7
:100CA0002B2002E0202101EAC000032A099001D094
:100CB000072A05DB03464146204600F097F90BE181
:100CC0002078800601D5E06900E00620B8F1650FC4
:100CD000814606D0B8F1660F18D0B8F1670F70D111
:100CE00031E00020B9F1110F009001DB112301E088
:100CF00009F101030AAA01A90CA8FFF7E2FEDDE948
:100D00000C70002609F10105834647E001204B469F
:100D100000904FF000470AAA01A90CA8FFF7D1FEE6
:100D2000DDE90DB00C995D46002610B909F101000E
:100D30000D18B9EB050003D4C0F1FF3609F1010528
:100D4000A5EB09002BE0B9F1010F01DA4FF0010921
:100D50000020B9F1110F0090484601DD112300E099
:100D600003460AAA01A90CA8FFF7ABFEDDE90C7047
:100D70004D4600268346207800070AD4AB4500DAAA
:100D80005D4601A8012D04DD411911F8011C30292F
:100D900007D04F4502DA17F1040F04DA012082462A
:100DA0000FE06D1EEEE7002F02DCED1B3E4403E07A
:100DB000781CA84200DD7D1CB81B00F1010A4FF031
:100DC00000472078000703D4AA4501DB4FF0FF3A23
:100DD0000021B7F1004F0DF143088DF8431024D0E6
:100DE00002202B23002F01DA7F422D230A21021E2D
:100DF000A0F1010000DC5FB197FBF1FC97FBF1F281
:100E000001FB1C7C17460CF1300C08F801CDEEE715
:100E1000A8F1010003702188090501D5452100E0F2
:100E20006521A0F1010800F8011C09980FA9A1EBA8
:100E30000807FF1D00B10120411901EBEA70A1690B
:100E40003844081A401EA0612078C00602D420460B
:100E5000FFF776FB099828B1D4E901219047206A71
:100E6000401C20622078C00622D52046FFF768FB90
:100E70001EE0002E04DBB34502DD01A8805D00E02A
:100E80003020D4E901219047206A401C2062761C62
:100E9000AAF101005FEA000A0AD100F05DF8C0681B
:100EA0000168405CD4E901219047206A401C20621F
:100EB000281EA5F10105DCDC07E0D4E9012118F8C2
:100EC000010B9047206A401C2062381EA7F10107E1
:100ED000F3DC2046FFF74AFB032011B041E6000097
:100EE00001694A1C02610878704700B58FB0CDE9EE
:100EF00001310021059105497944CDE903101146DE
:100F00006846FFF7D5FB0FB000BD0000E5FFFFFF0F
:100F10000A6802F8010B0A607047D1E900239A427F
:100F200002D2531C0B601070704710B5436913B1A7
:100F3000AFF3008001E0FFF72AFB012010BD12781B
:100F400000F124010A7000224A700122EDE71168C5
:100F50004FF0FF32E9E700000048704760000024CE
:100F600030B5B0F10A0271F100034FEA900E4EEA7B
:100F7000817EB0EB0E0061EB91014FEA101E4EEA4C
:100F8000017E10EB0E0041EB11114FEA102E4EEADC
:100F9000016E10EB0E0041EB11214FEA104E4EEAAC
:100FA000014E10EB0E0041EB1141401841F10001E0
:100FB0004FEAD00040EA41704FEAD1014FEA810484
:100FC00044EA907410EB800544EB01046D1944EB86
:100FD0000404521BA3414FF0000348BF0A3200D55E
:100FE00030BD401C41F1000130BD00002DE9F04151
:100FF0001F46044603260168072A01F4006004DB4B
:1010000008B116A505E016A503E008B115A500E096
:1010100015A521F010002060A069C01EA0610FB1CD
:10102000401EA0612046FFF78BFA4FB1D4E90121A1
:1010300038469047206A401C2062C01C206206E0AF
:10104000206AFAE7D4E9012115F8010B9047761ED2
:10105000F8D22046FFF78AFABDE8F0814E414E00F3
:101060006E616E00494E4600696E66002DE9F047DC
:10107000814616468AB0354878440DC88DE80D0083
:1010800032487844801C03AC0DC884E80D0041F65A
:101090009B300844372190FBF1F290FBF1F5A5F16C
:1010A000800501FB12041B3C02D56442012000E0D4
:1010B0000020DFF898A080460027FA44AAF1BE0A73
:1010C0000EE0E0070AD03246684607EB47010123ED
:1010D0000AEB810111F0E3F98DE8070064107F1C31
:1010E000002CEED1194F7F44AE3F19E0E80715D030
:1010F00007EB04100DF1180A90E80E008AE80E00C4
:10110000C068F04201D1981908903246012306A91F
:1011100003A811F0C4F903AB83E807006D10641C49
:10112000002DE3D14FF0010332466946B8F1000FBC
:1011300003A802D011F09EF901E011F0B0F9C9E95D
:101140000001C9F808200AB0BDE8F087D0170100F7
:1011500000487047400000247546FFF7F9FFAE468F
:1011600005006946534620F00700854618B020B5B3
:10117000FFF724F9BDE820404FF000064FF00007CC
:101180004FF000084FF0000BAC46ACE8C009ACE8EB
:10119000C009ACE8C009ACE8C00921F007018D46E0
:1011A000704710B50446AFF300802046BDE81040FC
:1011B000FFF7EDB80000000030B44FF0013C50F8EC
:1011C000042BCCFA52F451F8043BD51A20D1FCB9C7
:1011D00050F8042BCCFA52F451F8043BD51A17D12D
:1011E000B4B950F8042BCCFA52F451F8043BD51A98
:1011F0000ED16CB950F8042BCCFA52F451F8043BE0
:10120000D51A05D1002CDAD030BC4FF00000704761
:1012100029BAB1FA81F111F01801D1F1200084400E
:10122000F2D1CA40CB4012F0FF0213F0FF0330BCF2
:10123000D01A704701491820ABBEFEE72600020015
:101240007047000000000000B0B50446006842F29C
:10125000001140F48070C4F20201884218D142F2B9
:101260000830C4F20200006810F4403F18D004F0C7
:1012700063FF61680546B1F5803F05D0B1F5403F99
:101280002CD0B1F5003F2AD1080CB5FBF0F526E0D3
:1012900046F20830C5F60200006810F4403FE6D17F
:1012A0004FF40020002103F0BBFE61680546A1F564
:1012B00080224FEAB2420A2A11D8DFE802F007077B
:1012C0000707070755535951570000BF6FF001003A
:1012D00000EA5140B5FBF0F501E000BFAD0802F0B7
:1012E000ABFD41F2030188420ED8206842F601515D
:1012F000C0F231118D4281682CBF41F4807121F41C
:1013000080718160B0BD00BF4BF62140C0F2BE00CD
:10131000854205D82068816821F440718160B0BDA4
:1013200047F64100C0F27D10854207D820680122AF
:10133000816862F309218160B0BD00BF20684FF26F
:101340008101C0F2FA218D42816805D8022262F340
:1013500009218160B0BD00BF41F440718160B0BD22
:10136000ED09BCE76D09BAE72D09B8E72D0AB6E724
:10137000AD09B4E700000000FEE700000000000037
:1013800040F62050C2F2004001F092BA0000000086
:1013900040F6A840C2F2004001F08ABA0000000006
:1013A00040F20F42D0F800C0C4F20202944511DCB2
:1013B0006F22C4F20202944522DC3F22C4F20202F0
:1013C000944539DC1022C4F2020294455AD02822F6
:1013D00054E000BF40F26F42C4F2020294451BDCAD
:1013E00040F23F42C4F2020294452DDC40F210422A
:1013F000C4F20202944545D040F228423EE000BFCC
:101400009F22C4F20202944528DC7022C4F2020238
:10141000944537D0882231E040F29F42C4F2020264
:10142000944523DC40F27042C4F20202944529D074
:1014300040F2884222E000BF4022C4F202029445FA
:1014400020D058221AE000BF40F24042C4F202020B
:10145000944517D040F2584210E000BFA022C4F2D9
:10146000020294450ED0B82208E000BF40F2B84214
:10147000C4F20202944505D040F2A042C4F2020236
:10148000944517D10CF0F8024AF6AB23103ACAF68D
:10149000AA23A2FB03310AA35F2AC1F302115B5CFA
:1014A00040F2FF312CEA0101C36588BF0431816538
:1014B000084670472CF0FF0181650846704700BF61
:1014C000000610160006101670B540F26F44D0F8F2
:1014D00000C0C4F20204D0F858E0A4451ADC9F25ED
:1014E000C4F20205AC4533DC5725C4F20205AC4515
:1014F0005ADC1025C4F20205AC4500F0988028257E
:10150000C4F20205AC4500F092804025C4F2020509
:101510008AE000BF45F22F45C5F60205AC452DDC3B
:1015200040F2B745C4F20205AC454BDC40F27045D1
:10153000C4F20205AC457AD040F28845C4F20205F7
:10154000AC4574D040F2A045C4F202056CE000BF87
:1015500040F22745C4F20205AC4543DCA025C4F2A5
:101560000205AC4563D0B825C4F20205AC455ED097
:1015700040F21045C4F2020556E000BF45F26B454B
:10158000C5F60205AC453FDC45F23045C5F602051F
:10159000AC454CD045F24445C5F60205AC4546D0B5
:1015A00045F258453EE000BF5825C4F20205AC455F
:1015B0003DD07025C4F20205AC4538D08825C4F270
:1015C000020531E040F2B845C4F20205AC452ED028
:1015D00045F20845C5F60205AC4528D045F21C4544
:1015E00020E000BF40F22845C4F20205AC451ED001
:1015F00040F24045C4F20205AC4518D040F25845CF
:10160000C4F2020510E000BF45F26C45C5F60205C4
:10161000AC450CD045F29445C5F60205AC4506D064
:1016200045F28045C5F60205AC4540F0D080456ED8
:10163000C66E002E866E6E601CBFD0E91C566E60B2
:10164000A44515DC9F24C4F20204A4452CDC5724D5
:10165000C4F20204A44551DC1024C4F20204A445DF
:101660007AD02824C4F20204A44575D040246FE047
:1016700045F22F44C5F60204A44529DC40F2B744E4
:10168000C4F20204A44545DC40F27044C4F20204F2
:10169000A44561D040F28844C4F20204A4455BD062
:1016A00040F2A04454E000BF40F22744C4F20204D8
:1016B000A4453FDCA024C4F20204A4454CD0B824C5
:1016C000C4F20204A44547D040F2104440E000BFF9
:1016D00045F26B44C5F60204A44555DC45F230449E
:1016E000C5F60204A44561D045F24444C5F602049F
:1016F000A4455BD045F2584454E000BF5824C4F2DE
:101700000204A44528D07024C4F20204A44523D0C6
:1017100088241DE040F2B844C4F20204A4451BD062
:1017200045F20844C5F60204A4453FD045F21C44E6
:1017300038E000BF40F22844C4F20204A4450BD0B4
:1017400040F24044C4F20204A44505D040F258449B
:10175000C4F20204A4453AD18468C06D00F01F00B1
:101760003F2505FA00F0CEF80800DCF80000402C18
:1017700020F48020CCF80000CCF8043023D1CCF841
:101780000820CCF80C1070BD45F26C44C5F602047C
:10179000A4450BD045F28044C5F60204A44505D00B
:1017A00045F29444C5F60204A44510D1C46D012548
:1017B00004F01F04806805FA04F4CEF804404028C1
:1017C000CCF80430DBD0CCF80810CCF80C2070BD7D
:1017D000704700000000000072B600BFFEE7000086
:1017E00044F60400C5F60200816841F00201816000
:1017F0000168890409D4016889045CBF01685FEA53
:10180000814102D401688904F2D5704700000000CC
:1018100090F85020012A01D10220704710B582B003
:1018200042F2083400230193C4F202040093A4F5A9
:1018300042720368934227D14FF6006ECFF6FF7EC7
:1018400054F80E209B681A4352071DD4D1F800C0EB
:101850002268BCF1000F22F4404323D04A681A43A7
:1018600022604FF60052CFF6FF72A25854F80E30A5
:101870001A43D20726D1226840F61F739A4389681B
:10188000114341EA0C011CE0416D41F0200141652A
:101890000121002280F8502002B0BDE81040084627
:1018A000704700BF4FF600512360CFF6FF716158BB
:1018B00054F80E201143C90704D1216840F61F7265
:1018C000914321600021E4E7F0B581B0002200924D
:1018D00090F85020012A03D10221084601B0F0BD42
:1018E0000768012380F85030BB685B0700F19681E0
:1018F0000C684FF6FF7CB4F1FF3FC0F20F0C4FEACB
:1019000094630FDD94FAA4F214EA0C0FB2FA82F297
:1019100008BFA20E012402F01F0204FA02F2FC69C1
:101920002243FA614A681F2603F01F03C2F3012411
:1019300002F01F02964007EB840403FA02F2256BC3
:1019400025EA060632432263BA68BB6802F0040245
:1019500003F00803D21840F096800A6807258E68C5
:10196000C2F34063C2F3045207EB830395405C6902
:1019700006FA02F224EA05052A435A6141F20002FE
:10198000C5F60042126802F07042B2F1805F33D1B6
:101990004A69FB680E2606EA530302FA03F30C6950
:1019A000042C39D007F160020E6806F0F84652F8B0
:1019B0002450334305F000452B4342F824300B6993
:1019C0004E7E52F82350012E25F0004508BF05F148
:1019D000004542F823500A7E0B693E69013A03F044
:1019E0001F03B2FA82F226F4F0465209D2029A405C
:1019F00032433A6147E000BFFA684B69FE68D2069D
:101A00004FEA560402D404F00E0201E004F008028A
:101A100093400C69042CC5D13A6E0B6802F0F84271
:101A20009B069A4218D13A6E22F000423A667A6ECC
:101A300002F0F8429A4214D0BA6E02F0F8429A428A
:101A400018D1BA6E22F00042BA66FA6E02F0F8427D
:101A50009A4214D017E000BF7A6E02F0F8429A4220
:101A6000EAD17A6E22F000427A66BA6E02F0F8424B
:101A70009A42E6D0FA6E02F0F8429A4203D1FA6E28
:101A800022F00042FA66BA68D20779D1D1F800E0B4
:101A90000023C968D7F8C0200EEA0C04C4F25273C0
:101AA000A24301F018042CFA04F603F52D0506EA0A
:101AB0000E06A94246EA0201C7F8C0105DD142F203
:101AC0000011C4F202018F4226D042F20001C4F29A
:101AD00002018F423CD11F21C1F2F0418E4540F3FB
:101AE000C38040F2FF71C2F630618E4540F3A98099
:101AF00040F60001C2F630618E4500F0478141F2A8
:101B00000001C3F260218E4500F036810021C4F24D
:101B100021318E451DD045E11F21C1F2F0418E4596
:101B200000F388800721C0F690418E4500F3AA801B
:101B30000221C0F230418E4500F0A1800421C0F6A0
:101B400060018E4540F02E814023C1F6201300E055
:101B5000002393FAA3F143F6C132B1FA81F1C0F246
:101B60000A0213424FF0010208BF990E01F01F0153
:101B700002FA01F1FA691143F961BEF1FF3F01DD9B
:101B8000002150E042F2000146F2083CC4F202019A
:101B9000C5F6020C01F5807201F542739742624668
:101BA00008BF1A468F4242F2001408BF1A4647F493
:101BB0008073C4F20204A342136827D18A68D1F863
:101BC00008111143C90729D1002103F0E074CCF6B4
:101BD00084318E4508BF13F4000163D00021CCF29C
:101BE00052718E4540F0A0800021B1EB146F40F09F
:101BF0009B80ACF542718F42C2D1DCF8001021F01D
:101C0000E071214341F08071A5E000BF4FF6005123
:101C1000CFF6FF715CF80110C907D5D0416D41F0D6
:101C2000200141650121002280F85020084601B0C2
:101C3000F0BD00BF40F2FF71C2F630618E4500F387
:101C40008F802021C1F2F0418E4500F0A58040F246
:101C50000041C2F600218E4540F0A48040F600030A
:101C6000C2F6306375E700BF0721C0F690418E458C
:101C700008DC0221C0F230418E457FF45FAF0123C2
:101C800067E700BF0821C0F690418E457AD0102149
:101C9000C1F2C0018E4540F0858040F20013C2F2CF
:101CA000801356E7ACF542718F427FF469AFDCF8E0
:101CB000001042F6635221F0E071C0F23E5221431F
:101CC00041F40001CCF8001040F21C01C2F20041C6
:101CD00009688909A1FB02129109022202EB410164
:101CE0000091009900293FF44BAF00990139009110
:101CF000009900293FF444AF0099013900910099FF
:101D000000293FF43DAF0099013900910099002965
:101D10003FF436AF009901390091009900294FF046
:101D20000001E2D17FE700BFACF542718F424FF076
:101D300000017FF478AF0022CCF6B872964508BF58
:101D400013F480027FF46FAFDCF8001021F0E07133
:101D5000214341F48001CCF80010002163E700BF6B
:101D600040F60001C2F630618E450FD041F200010D
:101D7000C3F260218E4515D142F20003C3F2906395
:101D8000E7E600BF8023C1F65053E2E641F20003CC
:101D9000C3F26023DDE600BF40F20023C2F2B0537D
:101DA000D7E600BF00210023C4F684318E4504BF6E
:101DB0000023C4F6B873CCE670B582B004460028A0
:101DC0004FF0000001902DD0606D30B9204600F03A
:101DD0001FF90020A06584F8500020688168890000
:101DE0004FF6C071C5F6FF7102D582680A40826065
:101DF0008268D20031D4826801F18051114042F6EC
:101E0000635241F08051816040F21C01C0F23E52A9
:101E1000C2F2004109688909A1FB0212012101EB0C
:101E2000921105E00126304602B070BD01990139DA
:101E30000191019989B1019901390191019961B12A
:101E4000019901390191019900291FBF01990139B7
:101E50000191019918BF0029E8D18168C90009D40E
:101E6000616D012641F010016165A16D41F0010134
:101E7000A16500E000268168626D02F0100201F0A9
:101E800004018918616D40F0918021F48171023163
:101E900061658168C90728D142F2001240F480715F
:101EA000C4F20202914242F20001C4F2020140F087
:101EB000A5808A68D1F808311A43D20715D101F5F7
:101EC000807201F5427346F2080C9042C5F6020C8E
:101ED0001A4618BF0CF54072884208BF1A4660685F
:101EE000116821F47C110843106001F0A5FF41F254
:101EF000030100228842A068A0F1100188BF0122DE
:101F0000B1FA81F1237F49091140226B617D1546A9
:101F100016BF4D034A031C20012B45EA034141EA49
:101F2000020141EA000106D1206A0022CFF6FE72CA
:101F300002EB40400143606A20B100F47870A26A6D
:101F40001043014320684CF20303CFF6F073C268DC
:101F50001A401143C1608168826801F0040102F0F7
:101F60000802891836D1217D44F20305E26AC3686C
:101F700042EA813123EA05021143C16094F8381026
:101F8000012901691AD14FF61E020125CFF6004240
:101F9000CFF6FF751140D4E90F231943636C05EBAD
:101FA00002421143A26C1943114309E041F01000B1
:101FB00001266065304602B070BD00BF21F001010E
:101FC00001610169626B21F070411143016120469A
:101FD000FFF73AF92068E1680129026B22F00F014E
:101FE00002D1A269013A114301630121606D61F3DD
:101FF00001006065304602B070BD00BF46F20802C5
:10200000C5F602021268D2073FF459AF6DE700002F
:1020100081B042F200110068C4F2020188422DD062
:1020200042F20001C4F2020188424FD140F2401155
:1020300044F2D840C2F20041C5F602000A68002A04
:1020400002F101020A6008D1016841F0200101603B
:10205000016801F0200100910099816841F00101BF
:10206000816080684FF0007100F0010000904FF037
:102070000070009A01B005F05BBF00BF40F2401154
:1020800044F2D840C2F20041C5F602000A68002AB4
:1020900002F101020A6008D1016841F020010160EB
:1020A000016801F0200100910099816841F001016F
:1020B000816080684FF0807100F0010000904FF067
:1020C0008070009A01B005F033BF00BF01B07047C7
:1020D0002DE9F041044601F0B7FE3CB3054694F803
:1020E0003500022826D1276840F20F46C4F20206C6
:1020F00040F26F483868B74220F0010038606FF056
:102100000E00C4F202081DDC6F21C4F202018F42EE
:102110002ADC3F21C4F202018F4241DC1021C4F2CB
:1021200002018F4263D028215CE000BF0120BDE89E
:10213000F08100BF802060650120002184F8341008
:10214000BDE8F08147451BDC40F23F41C4F202018B
:102150008F422DDC40F21041C4F202018F4246D082
:1021600040F228413EE000BF9F21C4F202018F42AD
:1021700028DC7021C4F202018F4238D0882131E07E
:1021800040F29F41C4F202018F4223DC40F27041D1
:10219000C4F202018F422AD040F2884122E000BFFF
:1021A0004021C4F202018F4221D058211AE000BF21
:1021B00040F24041C4F202018F4218D040F258412F
:1021C00010E000BFA021C4F202018F420FD0B8215D
:1021D00008E000BF40F2B841C4F202018F4206D0CD
:1021E00040F2A041C4F202018F42394607D139467C
:1021F000386820F01E0041F8140B6FF080000A6868
:10220000474500EA020008601ADC9F20C4F2020081
:10221000874233DC5720C4F2020087425ADC102088
:10222000C4F20200874200F097802820C4F2020026
:10223000874200F091804020C4F202008AE000BF93
:1022400045F22F40C5F6020087422DDC40F2B74030
:10225000C4F2020087424BDC40F27040C4F202003C
:10226000874279D040F28840C4F20200874273D09E
:1022700040F2A040C4F202006CE000BF40F22740F0
:10228000C4F20200874243DCA020C4F2020087426D
:1022900062D0B820C4F2020087425DD040F2104004
:1022A000C4F2020056E000BF45F26B40C5F60200E2
:1022B00087423FDC45F23040C5F6020087424BD0F2
:1022C00045F24440C5F60200874245D045F25840E9
:1022D0003EE000BF5820C4F2020087423CD070208C
:1022E000C4F20200874237D08820C4F2020031E0F5
:1022F00040F2B840C4F2020087422DD045F20840B7
:10230000C5F60200874227D045F21C4020E000BFFE
:1023100040F22840C4F2020087421DD040F2404003
:10232000C4F20200874217D040F25840C4F20200C3
:1023300010E000BF45F26C40C5F6020087420BD0AA
:1023400045F29440C5F60200874205D045F2804030
:10235000C5F60200874205D1206E016821F4807124
:10236000016000BF3868C00710D001F06DFD401B50
:102370000628F7D320206065032084F8350001206B
:10238000002184F83410BDE8F08100BF20680821E6
:10239000B0424FF03F0211DC6F23C4F202039842B7
:1023A0001EDC3F23C4F20203984235DC1023C4F242
:1023B0000203984257D0282350E000BF40451BDC61
:1023C00040F23F43C4F2020398422DDC40F2104336
:1023D000C4F20203984246D040F228433EE000BFD8
:1023E0009F23C4F20203984228DC7023C4F2020344
:1023F000984238D0882331E040F29F43C4F2020370
:10240000984223DC40F27043C4F2020398422AD07F
:1024100040F2884322E000BF4023C4F20203984206
:1024200021D058231AE000BF40F24043C4F2020317
:10243000984218D040F2584310E000BFA023C4F2E5
:10244000020398420FD0B82308E000BF40F2A04337
:10245000C4F20203984206D040F2B843C4F2020329
:10246000984240F0C580D4E9163707F01F07404571
:1024700002FA07F25A5019DC9F21C4F20201884285
:1024800032DC5721C4F20201884259DC1021C4F227
:102490000201884200F096802821C4F2020188429D
:1024A00000F090804021C4F2020189E045F22F4102
:1024B000C5F6020188422DDC40F2B741C4F20201A8
:1024C00088424BDC40F27041C4F20201884279D06C
:1024D00040F28841C4F20201884273D040F2A04128
:1024E000C4F202016CE000BF40F22741C4F20201D5
:1024F000884243DCA021C4F20201884262D0B821A4
:10250000C4F2020188425DD040F21041C4F20201DF
:1025100056E000BF45F26B41C5F6020188423FDC40
:1025200045F23041C5F6020188424BD045F24441A4
:10253000C5F60201884245D045F258413EE000BF51
:102540005821C4F2020188423CD07021C4F2020139
:10255000884237D08821C4F2020131E040F2B8410C
:10256000C4F2020188422DD045F20841C5F60201AD
:10257000884227D045F21C4120E000BF40F22841AC
:10258000C4F2020188421DD040F24041C4F202016F
:10259000884217D040F25841C4F2020110E000BF57
:1025A00045F26C41C5F6020188420BD045F29441D8
:1025B000C5F60201884205D045F28041C5F6020108
:1025C00088420BD1616EA26EE06E4A6030B1016844
:1025D00021F480710160D4E91C014160012084F87C
:1025E00035000020002184F83410BDE8F08100BFE0
:1025F0000421012237E70000F0B190F835100229DC
:1026000018D180B540F20F420168C4F20202914233
:1026100014DC6F23C4F20203994225DC3F23C4F289
:10262000020399423CDC1023C4F2020399425DD0BC
:10263000282357E0802141650120704740F26F4315
:10264000C4F2020399421BDC40F23F43C4F202038E
:1026500099422DDC40F21043C4F20203994245D066
:1026600040F228433EE000BF9F23C4F20203994298
:1026700028DC7023C4F20203994237D0882331E06A
:1026800040F29F43C4F20203994223DC40F27043BC
:10269000C4F20203994229D040F2884322E000BFED
:1026A0004023C4F20203994220D058231AE000BF0D
:1026B00040F24043C4F20203994217D040F258431B
:1026C00010E000BFA023C4F2020399420ED0B82349
:1026D00008E000BF40F2B843C4F20203994205D0BB
:1026E00040F2A043C4F20203994275D191424FF0E7
:1026F000040280F8352011DC6F20C4F20200814210
:1027000022DC3F20C4F20200814239DC1020C4F2F6
:102710000200814259D0282054E000BF40F26F40AF
:10272000C4F2020081421BDC40F23F40C4F20200CE
:1027300081422DDC40F21040C4F20200814244D0BC
:1027400040F228403EE000BF9F20C4F202008142D8
:1027500028DC7020C4F20200814236D0882031E0AB
:1027600040F29F40C4F20200814223DC40F27040FC
:10277000C4F20200814228D040F2884022E000BF2B
:102780004020C4F2020081421FD058201AE000BF4E
:1027900040F24040C4F20200814216D040F258405C
:1027A00010E000BFA020C4F2020081420DD0B8208A
:1027B00008E000BF40F2B840C4F20200814204D0F9
:1027C00040F2A040C4F202008142086820F00100FB
:1027D0000860002080BD00BF0A6822F001020A6084
:1027E00045F25742C5F6020291420A6822F00E02F3
:1027F0000A600FDC45F22F42C5F60202914219DC55
:1028000045F20842C5F60202914229D045F21C4227
:1028100022E000BF45F27F42C5F60202914213DC7E
:1028200045F25842C5F60202914219D045F26C4277
:1028300012E000BF45F23042C5F6020291420FD0CD
:1028400045F2444208E000BF45F29442C5F6020258
:10285000914205D045F28042C5F6020291421AD15A
:10286000D0E9181CD0E916E30A6822F480720A60E5
:1028700003F01F01012202FA01F1CEF80410816E6B
:10288000CCF80410C16E31B10A6822F480720A607B
:10289000D0E91C124A60012180F83510016D002238
:1028A000002980F8342094D08847002080BD0000A3
:1028B0002DE9F04782B00021019140F21C0148F25D
:1028C000B513C2F20041C1F64E33856D40F26F4937
:1028D0000A680168C4F202092E68A2FB0328494570
:1028E0002A6815DC9F22C4F2020291422CDC572296
:1028F000C4F20202914251DC1022C4F2020291425F
:102900007BD02822C4F20202914276D040226FE0AE
:1029100045F22F43C5F60203994229DC40F2B74342
:10292000C4F20203994245DC40F27042C4F2020252
:10293000914262D040F28842C4F2020291425CD0DD
:1029400040F2A04254E000BF40F22742C4F202022B
:1029500091423FDCA022C4F2020291424DD0B82243
:10296000C4F20202914248D040F2104240E000BF5F
:1029700045F26B43C5F60203994275DC45F23043DC
:10298000C5F60203994200F0828045F24443C5F641
:10299000020399427BD045F2584373E05822C4F2B7
:1029A0000202914229D07022C4F20202914224D044
:1029B00088221DE040F2B843C4F2020399421CD0C1
:1029C00045F20843C5F60203994260D045F21C4324
:1029D00058E000BF40F22842C4F2020291420CD0FB
:1029E00040F24042C4F20202914206D040F2584204
:1029F000C4F20202914240F05383C26D082302F0F8
:102A00001F0240F20F4A9340C4F2020A334200F020
:102A1000DE8051454FF0040412DC6F27C4F2020738
:102A2000B9426DDC3F27C4F20207B94200F39C8033
:102A30001027C4F20207B94200F0BD802827B5E094
:102A4000494569DC40F23F47C4F20207B94200F34E
:102A5000938040F21047C4F20207B94200F0AB8005
:102A600040F22847A2E000BF45F26C43C5F60203DE
:102A700099420CD045F28043C5F60203994206D034
:102A800045F29443C5F60203994240F009830B686E
:102A9000C76D07F01F070426BE40164218BF13F08B
:102AA000040423D10226BE40164218BF13F00204CC
:102AB00042D1FA40120740F1F38213F0080200F00D
:102AC000EF820A6822F00E020A60012101FA07F281
:102AD0006A60416580F83510C16C00294FF0000232
:102AE00080F8342040F0D882DAE200BF1A046E6029
:102AF00034D49A0635D40A6822F004020A6030E021
:102B00009F27C4F20207B94240DC7027C4F20207D3
:102B1000B94250D0882749E040F29F47C4F20207EB
:102B2000B9423BDC40F27047C4F20207B94242D0DE
:102B300040F288473AE000BF1A046E6000F1B482A8
:102B40009A0600F1B5820A6822F00A020A600121A1
:102B500080F83510002180F83410A9E2D90300F183
:102B6000A982016C97E200BF4027C4F20207B94274
:102B700021D058271AE000BF40F24047C4F20207B4
:102B8000B94218D040F2584710E000BFA027C4F265
:102B90000207B9420FD0B82708E000BF40F2A047B3
:102BA000C4F20207B94206D040F2B847C4F20207A5
:102BB000B94218BF08240F68274208D00F6827F0D1
:102BC00004070F60AB60436D43F0010343650123CD
:102BD000934033426FD0514510DC6F27C4F2020797
:102BE000B9421DDC3F27C4F20207B94234DC10278A
:102BF000C4F20207B94256D028274FE049451BDCF2
:102C000040F23F47C4F20207B9422DDC40F21047C0
:102C1000C4F20207B94246D040F228473EE000BF66
:102C20009F27C4F20207B94228DC7027C4F20207CA
:102C3000B94238D0882731E040F29F47C4F20207FA
:102C4000B94223DC40F27047C4F20207B9422AD0ED
:102C500040F2884722E000BF4027C4F20207B94291
:102C600021D058271AE000BF40F24047C4F20207C3
:102C7000B94218D040F2584710E000BFA027C4F274
:102C80000207B9420FD0B82708E000BF40F2A047C2
:102C9000C4F20207B94206D040F2B847C4F20207B4
:102CA000B94240F00D824F693F0604D5AB60436DD9
:102CB00043F0020343650423934033426FD05145F0
:102CC00010DC6F27C4F20207B9421DDC3F27C4F2B3
:102CD0000207B94234DC1027C4F20207B94256D0C9
:102CE00028274FE049451BDC40F23F47C4F202076A
:102CF000B9422DDC40F21047C4F20207B94246D077
:102D000040F228473EE000BF9F27C4F20207B942C5
:102D100028DC7027C4F20207B94238D0882731E096
:102D200040F29F47C4F20207B94223DC40F27047E9
:102D3000C4F20207B9422AD040F2884722E000BF1D
:102D40004027C4F20207B94221D058271AE000BF39
:102D500040F24047C4F20207B94218D040F2584747
:102D600010E000BFA027C4F20207B9420FD0B82775
:102D700008E000BF40F2A047C4F20207B94206D003
:102D800040F2B847C4F20207B94240F0A1810F688F
:102D9000BF0704D5AB60436D43F0040343651023C4
:102DA00003FA02F2324200F0828051454FF00803EC
:102DB00010DC6F27C4F20207B9421DDC3F27C4F2C2
:102DC0000207B94234DC1027C4F20207B94256D0D8
:102DD00028274FE049451BDC40F23F47C4F2020779
:102DE000B9422DDC40F21047C4F20207B94246D086
:102DF00040F228473EE000BF9F27C4F20207B942D5
:102E000028DC7027C4F20207B94238D0882731E0A5
:102E100040F29F47C4F20207B94223DC40F27047F8
:102E2000C4F20207B9422AD040F2884722E000BF2C
:102E30004027C4F20207B94221D058271AE000BF48
:102E400040F24047C4F20207B94218D040F2584756
:102E500010E000BFA027C4F20207B9420FD0B82784
:102E600008E000BF40F2A047C4F20207B94206D012
:102E700040F2B847C4F20207B94218BF04230F68F2
:102E80001F4214D0AA600A6852030A6808D4D20507
:102E900008D40A6822F008020A60016C21B906E031
:102EA000110351D4016C11B1044688472046C16D0D
:102EB00001F01F02202101FA02F3334200F0AF803B
:102EC00001681027514511DC6F26C4F20206B14299
:102ED0001EDC3F26C4F20206B14239DC1026C4F2E1
:102EE0000206B1425BD0282654E000BF49451BDCF6
:102EF00040F23F46C4F20206B14231DC40F21046D5
:102F0000C4F20206B1424AD040F2284642E000BF75
:102F10009F26C4F20206B1422CDC7026C4F20206DF
:102F2000B1423CD0882635E040F29F46C4F202060A
:102F3000B14227DC40F27046C4F20206B1422ED004
:102F400040F2884626E000BF816C0029ACD1AEE794
:102F50004026C4F20206B14221D058261AE000BF32
:102F600040F24046C4F20206B14218D040F2584640
:102F700010E000BFA026C4F20206B1420FD0B8266E
:102F800008E000BF40F2A046C4F20206B14206D0FB
:102F900040F2B846C4F20206B14218BF02270E68DA
:102FA0003E423CD0AB6090F83530042B0B681DD10D
:102FB00023F016030B604B6923F080034B61036C15
:102FC0000BB9836C1BB10B6823F008030B603F2126
:102FD0009140A960012180F83510016D00294FF062
:102FE000000280F8342057D15AE000BF5A030A6823
:102FF0000ED4D2050ED40A6822F010020A60012114
:1030000080F83510002180F83410C16B21B906E03A
:10301000110351D4C16B11B1044688472046416D5C
:1030200000293DD0416DC90734D0042180F8351006
:1030300001684FEA98220B6823F001030B60019BA3
:103040000133019393421AD80B68DB0717D0019B19
:1030500001330193934212D80B68DB070FD0019B19
:103060000133019393420AD80B68DB0707D0019B19
:1030700001330193934202D80B68DB07DFD1096863
:10308000C9074FF0030108BF012180F83510002166
:1030900080F83410C16C19B102B0BDE8F0470847A0
:1030A00002B0BDE8F08700BFD90301D4416CF2E75C
:1030B000C16BF0E7816CEEE7416C0029ACD1AEE763
:1030C0000B680423934033427FF4F9AD67E600BFF9
:1030D0000B6864E6000000002DE9F041044600F0B2
:1030E000B3FEFCB140F26F4805462068C4F2020806
:1030F00040451BDC9F21C4F20201884232DC57218B
:10310000C4F20201884259DC1021C4F20201884253
:1031100000F083802821C4F20201884200F07D8003
:10312000402175E00120BDE8F08100BF45F22F414C
:10313000C5F60201884229DC40F2B741C4F202011F
:10314000884247DC40F27041C4F20201884264D0F8
:1031500040F28841C4F2020188425ED040F2A041B0
:1031600056E000BF40F22741C4F20201884241DC30
:10317000A021C4F2020188424FD0B821C4F202015A
:1031800088424AD040F2104142E000BF45F26B4114
:10319000C5F60201884200F3B38045F23041C5F61E
:1031A0000201884200F0BF8045F24441C5F60201A9
:1031B000884200F0B88045F25841AFE05821C4F28F
:1031C0000201884229D07021C4F20201884224D031
:1031D00088211DE040F2B841C4F2020188421CD0AF
:1031E00045F20841C5F60201884200F09C8045F294
:1031F0001C4193E040F22841C4F2020188420CD005
:1032000040F24041C4F20201884206D040F25841E7
:10321000C4F20201884240F01B81022184F835107B
:10322000002184F83410016821F00101016000BF21
:1032300020680168C9070DD000F006FE401B062873
:10324000F6D320206065032084F835000120BDE816
:10325000F08100BF48F23F0204F108060168CFF692
:103260001062114065694CCE1143A2691943E369AC
:103270003143266A0D43616A2B43042943EA06035E
:1032800043EA020303D1D4E90B652E43334341F2F1
:103290000006C5F600463668B6F1005F0FD36568D4
:1032A000A5F129061F2E00F235820127B7403F26DF
:1032B000CCF2C036374200F02D8243F48013036015
:1032C0000429436923F0070341EA030140F0DC804D
:1032D000D4E90A53002B41EA050100F0D580B2F58C
:1032E000005F00F0B780002A40F0C080022D00F09F
:1032F000C080012D00F0B480002D00F0BA80C3E042
:1033000045F26C41C5F6020188420CD045F280417D
:10331000C5F60201884206D045F29441C5F6020185
:10332000884240F0958004F1080E022184F835109F
:10333000002184F834100168A3699EE80450A2F1CA
:103340008005E769B5FA85F566696D09402A4FEA97
:10335000853543EA07026FF3101142EA060208BFFF
:10336000102541EADC0142EA0E02236A294341EAC0
:10337000D20141EA131140F80819C0B2CD214843E7
:103380003C2101EA9020E0652046FEF709F8E16D56
:10339000012201F01F0102FA01F14160206840455D
:1033A00000F381809F21C4F20201884214DC57217E
:1033B000C4F20201884227DC1021C4F202018842D3
:1033C00000F0C7802821C4F20201884200F0C180C9
:1033D0004021C4F20201B9E040F22741C4F20201E7
:1033E000884221DCA021C4F20201884200F0B180B1
:1033F000B821C4F20201884200F0AB8040F21041D3
:10340000C4F20201A2E000BF5821C4F202018842C6
:1034100000F09F807021C4F20201884200F0998080
:103420008821C4F2020191E040F22841C4F2020175
:10343000884200F08E8040F24041C4F2020188428E
:1034400000F0878040F25841C4F202017EE000BFE4
:103450004020F7E6032D17D8DFE805F00E0B0E022B
:10346000A3F1C072B2FA82F2520904E0032D03D331
:103470000AD1C3F300623AB140206065012084F8AC
:103480003500BDE8F08100BF41612046FDF788FFAF
:10349000E16D3F2201F01F0102FA01F18160206815
:1034A00040457FF77FAF45F22F41C5F602018842C4
:1034B00016DC40F2B741C4F20201884226DC40F239
:1034C0007041C4F20201884243D040F28841C4F204
:1034D000020188423DD040F2A041C4F2020135E031
:1034E00045F26B41C5F6020188421FDC45F23041CE
:1034F000C5F6020188422CD045F24441C5F60201CE
:10350000884226D045F258411EE000BF40F2B84143
:10351000C4F2020188421CD045F20841C5F60201FE
:10352000884216D045F21C410EE000BF45F26C41C6
:10353000C5F6020188420CD045F29441C5F602015D
:10354000884206D045F28041C5F60201884240F02B
:10355000D98045F2574C45F6FC0EC5F6020CC5F66F
:10356000020E60450EDC45F22F41C5F6020188428D
:1035700018DC45F20841C5F60201884228D045F220
:103580001C4121E045F27F41C5F60201884213DC6F
:1035900045F25841C5F60201884219D045F26C4106
:1035A00012E000BF45F23041C5F6020188420FD05B
:1035B00045F2444108E000BF45F29441C5F60201DE
:1035C000884205D045F28041C5F60201884247D1C4
:1035D00000F0FC014CF6CD420839CCF6CC42A1FB00
:1035E0000212AEF1FC05AEF17C061309A26803F0ED
:1035F0001F01802A4FF0010205EB8305256602FAC0
:1036000001F26666A26605D10020606028607260E3
:103610001EE000BF6368D9B25F1E072F2960726089
:1036200016D84E1E082E19D260450EF1440237DC22
:1036300045F22F41C5F60201884241DC45F20841BE
:10364000C5F60201884251D045F21C414AE000BF54
:1036500000206067C4E91B0054E000BFE06E4CE04E
:1036600000F0F8014AF6AB221039CAF6AA22A1FBF3
:10367000021240F20F43C4F20203082511099842D6
:1036800003F1AA060B4688BF05EB121340F60005AE
:10369000B042C4F2020505F1800628BF0B46A5E73B
:1036A00045F27F41C5F60201884213DC45F25841DC
:1036B000C5F60201884219D045F26C4112E000BF04
:1036C00045F23041C5F6020188420FD045F244412F
:1036D00008E000BF45F28041C5F60201884205D0EE
:1036E00045F29441C5F6020188421BD10EEB8300DE
:1036F0000121E066B1402267616700210160D4E9E1
:103700001C01416000206065012184F83510BDE88E
:10371000F08100BFA5F14F07042F38BF43F4801399
:10372000CDE500BF40F60000C4F2020000F1FC0E3F
:1037300000F5A072DAE7000030B110B590F834401F
:10374000012C03D1022010BD01207047012480F814
:10375000344090F83540012C2CD1022480F83540BB
:1037600000244465D0F800C0DCF8004024F00104D7
:10377000CCF800400446FDF7A7FE40F20F4C20684D
:10378000C4F2020C40F26F416045C4F2020119DC40
:103790006F23C4F20203984226DC3F23C4F20203E3
:1037A00098423DDC1023C4F2020398425FD02823E4
:1037B00058E000BF4FF400614165002180F83410EB
:1037C000012010BD88421BDC40F23F43C4F20203DB
:1037D00098422DDC40F21043C4F20203984246D0D6
:1037E00040F228433EE000BF9F23C4F20203984208
:1037F00028DC7023C4F20203984238D0882331E0D9
:1038000040F29F43C4F20203984223DC40F270432B
:10381000C4F2020398422AD040F2884322E000BF5B
:103820004023C4F20203984221D058231AE000BF7B
:1038300040F24043C4F20203984218D040F2584389
:1038400010E000BFA023C4F2020398420FD0B823B7
:1038500008E000BF40F2B843C4F20203984206D029
:1038600040F2A043C4F20203984240F02F81036863
:103870000B2262F344030360226C1AB1082302682E
:103880001A430260884219DC9F22C4F2020290426D
:1038900032DC5722C4F20202904259DC1022C4F2F8
:1038A0000202904200F096802822C4F20202904266
:1038B00000F090804022C4F2020289E045F22F42DB
:1038C000C5F6020290422DDC40F2B742C4F2020279
:1038D00090424BDC40F27042C4F20202904279D036
:1038E00040F28842C4F20202904273D040F2A042F9
:1038F000C4F202026CE000BF40F22742C4F20202AE
:10390000904243DCA022C4F20202904262D0B8226C
:10391000C4F2020290425DD040F21042C4F20202B0
:1039200056E000BF45F26B42C5F6020290423FDC12
:1039300045F23042C5F6020290424BD045F2444275
:10394000C5F60202904245D045F258423EE000BF23
:103950005822C4F2020290423CD07022C4F2020209
:10396000904237D08822C4F2020231E040F2B842DD
:10397000C4F2020290422DD045F20842C5F602027E
:10398000904227D045F21C4220E000BF40F228427E
:10399000C4F2020290421DD040F24042C4F2020240
:1039A000904217D040F25842C4F2020210E000BF29
:1039B00045F26C42C5F6020290420BD045F29442A9
:1039C000C5F60202904205D045F28042C5F60202D9
:1039D000904274D1236E1A68D20303D51A6842F458
:1039E00080721A60E36E1BB11A6842F480721A602A
:1039F000604511DC6F21C4F2020188421EDC3F21C8
:103A0000C4F20201884235DC1021C4F2020188426E
:103A100055D0282150E000BF88421BDC40F23F41D6
:103A2000C4F2020188422DDC40F21041C4F20201CE
:103A3000884244D040F228413EE000BF9F21C4F2BA
:103A40000201884228DC7021C4F20201884236D08B
:103A5000882131E040F29F41C4F20201884223DC18
:103A600040F27041C4F20201884228D040F28841FD
:103A700022E000BF4021C4F2020188421FD0582139
:103A80001AE000BF40F24041C4F20201884216D061
:103A900040F2584110E000BFA021C4F20201884268
:103AA0000DD0B82108E000BF40F2B841C4F20201D5
:103AB000884204D040F2A041C4F202018842016869
:103AC00041F001010160002010BD00BF0268052324
:103AD00063F343020260226C002A3FF4D3AE042356
:103AE000CDE6000000000000B0B5044600F0ACF9DF
:103AF00040F214010546C2F20041621C097818BF69
:103B00000C4400BF00F0A0F9401BA042FAD3B0BDA6
:103B1000002908BF70472DE9F04F81B000F126421F
:103B200042F2004302F1FF72C5F602030A259842F1
:103B30004FEAB22440F2040E08BF0925092CC5F64D
:103B4000000E38BF4FEAB22500F1200C00220027FA
:103B50000024009529E000BF0323066803FA02FA57
:103B60006FF0030303EA540346EA0A06066007F00F
:103B70001C060F2505FA06F95CF8036026EA09061B
:103B80004CF80360C36823EA0A03C360436823EA6E
:103B900008034360836823EA0A038360013404371F
:103BA00031FA04F302F102023CD0012303FA04F8D3
:103BB00018EA0109F2D040F2084324F00305C5F6E3
:103BC000000307F00C0BED580F2303FA0BFA009BD0
:103BD00005EA0A0503FA0BF6B542BDD1DEF87C50C2
:103BE0004FF0B04325EA0905CEF87C50DEF880504E
:103BF00025EA0905CEF88050DEF8005025EA0905CF
:103C0000CEF800501E68A50826EA09061E6040F29C
:103C10000843C5F6000353F8256026EA0A0643F870
:103C2000256099E701B0BDE8F04F70470000000043
:103C30002DE9F04F85B00F680390002F00F0E6806B
:103C4000039842F2004600F126428C4602F1FF72D0
:103C5000C5F602060A21B0424FEAB22600F1200062
:103C600008BF09210090092E38BF4FEAB221002475
:103C700000264FF000080191CDF808C00CE000BF0D
:103C800008F10108DCF8007037FA08F106F10206C5
:103C900004F1040400F0BA80012000FA08F217EAE7
:103CA0000209EDD0DCF804A003200AF0030B00FAAF
:103CB00006F5ABF10107012F12D803988768DCE9FC
:103CC00002C3AF43B3403B438360CAF3001743686A
:103CD00023EA020207FA08F31A43426008E000BF31
:103CE000DCF808C0BBF1030F08BFBCF1010F2DD0F9
:103CF00003994FEA480EE8430CFA06F3CA68BBF191
:103D0000020F22EA050242EA0302CA601AD1834680
:103D10006FF0030000EA5802009804F01C050F2120
:103D200050F802C001FA05FA02992CEA0A078C46FB
:103D30000B69AB403B438350D1F804A058460AF0CE
:103D4000030B0BE0DDF808C008E000BF4FF0030BE9
:103D5000B6460BFA06F2DDF808C0D043039B1AF40E
:103D6000403F1A6802EA00010BFA0EF241EA020132
:103D700019603FF485AF44F2F44040F20845C5F6BF
:103D80000200C5F60005016841F00201016001680A
:103D90000F2001F00201049128F00301049A04F0BD
:103DA0000C024B5900FA02F70198BB4300FA02F2E9
:103DB0004FF0B0401A434A510168DCF8042041EA50
:103DC0000903D70258BF21EA09039702036040F2B2
:103DD0000400C5F60000016841EA090358BF21EA62
:103DE000090397030360D0F8801041EA090358BF24
:103DF00021EA0903D203C0F88030C16F41EA090308
:103E000058BF21EA0903C3673AE700BF05B0BDE820
:103E1000F08F0000000000000069084018BF01207A
:103E20007047000000000000002A08BF09048161FB
:103E3000704700000000000041F20000C5F600409D
:103E40000068000C7047000049F2C000C2F2024056
:103E5000006870470000000090F84120202A03D13C
:103E600090F84020012A01D102207047242280F8D6
:103E700041200268136823F001031360136823F4E0
:103E800080531360136819431160116841F00101F8
:103E90001160202180F84110002180F8401000209E
:103EA000704700000000000090F84120202A03D154
:103EB00090F84020012A01D102207047242280F886
:103EC00041200268136823F001031360136823F490
:103ED000706343EA01211160116841F00101116032
:103EE000202180F84110002180F840100020704708
:103EF000B0B110B5242180F84110016804460A6869
:103F000022F001020A6000F05FFB0020606484F888
:103F10004100206384F8420084F8400010BD00BFD7
:103F2000012070470000000010B310B590F8411058
:103F300031B9002180F84010044600F065FB2046AE
:103F4000242180F8411090E81210C3680A68012B00
:103F500022F001020A6024F070620A618A6822F489
:103F600000428A6006D14CF400428A600CE000BF37
:103F700001207047022B4CF404428A6004D14A6845
:103F800042F4006203E000BF4A6822F400624A6023
:103F900000F1100C4A6842F0007242F400424A609C
:103FA000CA6822F40042CA609CE81C101A4342EA24
:103FB0000422CA60026A42EA0C020A600A6842F0FD
:103FC00001020A6000214164202280F8412001633F
:103FD00080F84210002010BD2DE9F04F83B000277B
:103FE0000297044690F84100202807D12068806994
:103FF000000403D494F84000012803D1022003B048
:10400000BDE8F08F0F4642F200091D4690466FF35F
:104010009F27C0F2002903F1010B4FF0100A012085
:1040200084F84000242084F841000020606410E0FF
:10403000C1F81CA02021002220462B46009604F047
:104040009BFF002866D002980130029002984045FC
:1040500072D2E06849460128206818BF01F5006166
:1040600039434160FFF7F0FE216806468A698B6993
:1040700002F0200203F01003D21813D1BBF1000F9D
:1040800024D0002D56D000BFFFF7DEFE801BA842D3
:1040900052D8216888698A6900F0200002F0100275
:1040A0008018F1D08869C006C2D4202100222046A1
:1040B0002B46009604F060FF80B3606C0428C2D1E8
:1040C00020682021C16100206064BCE788698A699A
:1040D00000F0200002F010028018E3D188698A699C
:1040E00000F0200002F01002801801BF88698A6980
:1040F00000F0200002F0100208BF10EB0200D1D146
:1041000088698A6900F0200002F010028018DDD072
:10411000C8E700BF20682021C16194E72068202102
:10412000C161002084F84110002184F8401003B0E0
:10413000BDE8F08FFFF788FE202084F84100606C16
:1041400040F0200060640120002184F8401003B09A
:10415000BDE8F08F000000002DE9F04F83B0044669
:1041600090F84100202807D10C9F4FB10D9E3EB121
:1041700094F8400001280BD1022003B0BDE8F08F75
:104180004FF400706064012003B0BDE8F08F00BF01
:104190009A4693468846012084F84000FFF754FE73
:1041A000216805468A69120449D4222084F8410016
:1041B000402084F842005FFA8AF04FF000096FF364
:1041C0009F28C4F84490676248EA0040668549F633
:1041D0000006C4F83490CFF600464A68CDF808804F
:1041E0003240DDF8388010442A4600F5005048601F
:1041F0002046414604F074FFC0B9BAF1010F2068AF
:1042000009D04FEA1B218162204641462A4604F02C
:1042100067FF58B920685FFA8BF181624021002264
:1042200020464346009504F0A7FE48B384F840902A
:10423000012003B0BDE8F08F88690004B5D51921CD
:1042400020462A4604F0E8FD00289CD1FFF7FCFD3B
:10425000401B21681A28EFD388690004ECD5606CF4
:1042600040F020006064202084F84100002084F8A1
:10427000420084F84000012003B0BDE8F08F00BF89
:10428000608D40F2000AC0F2FF1AB0F5807F09D3BA
:1042900020680AF5105350F8041F01EA0602FF21B6
:1042A0000AE000BF618D2068CAB250F8043F334075
:1042B00043EA02420AF59233029F1A4307F100795A
:1042C0004FF0FF0B06F580663A43026021850BE054
:1042D000608D21682085C0B24A6849EA00403240BA
:1042E00010434860608DA8B3042100222046434655
:1042F000009504F041FE00287FF445AF2068616A14
:10430000406A0870218D606A01306062481E208515
:10431000618D01396185618D0029E3D00004E1D10F
:104320008021002220464346009504F025FE002807
:104330007FF429AF608DB0F5807FC9D32168A4F8E0
:1043400028B0486800EA06020298104340EA0A00D2
:10435000C7E700BF204641462A4604F081FE0028F8
:104360007FF411AF206820214EF60003C161CFF623
:10437000006342681A40426084F84110002084F8CB
:10438000420084F8400003B0BDE8F08F0000000058
:104390002DE9F04F81B0044690F84100202807D164
:1043A0000A9F4FB10B9E3EB194F8400001280BD1FB
:1043B000022001B0BDE8F08F4FF40070606401206E
:1043C00001B0BDE8F08F00BF9A4691468B460120B0
:1043D00084F84000FFF738FD216805468A69120419
:1043E0004DD4212084F84100402084F842005FFA37
:1043F0008AF04FF000086FF39F2BC4F84480676287
:104400004BEA0040668549F60046CFF60046C4F800
:1044100034804A68A6F580631A405F461044DDF890
:1044200030B040F080702A4640F40050486020468A
:10443000594604F055FEC0B9BAF1010F206809D001
:104440004FEA19218162204659462A4604F048FE67
:1044500058B920685FFA89F18162802100222046E4
:104460005B46009504F088FD50B384F8408001203D
:1044700001B0BDE8F08F00BF88690004B1D51921F3
:1044800020462A4604F0C8FC002898D1FFF7DCFC3F
:10449000401B21681A28EFD388690004ECD5606CB2
:1044A00040F020006064202084F84100002084F85F
:1044B000420084F84000012001B0BDE8F08F00BF49
:1044C000608D40F20009C0F2FF19B0F5807F09D37A
:1044D0002068B4464B4650F8041F01EA0602FF214B
:1044E0000BE000BF618DB4462068CAB250F8043FAB
:1044F000334043EA02424FF000731A4307F1007A57
:104500004FF0FF0866463A43026021850CE000BF89
:10451000608D21682085C0B24A684AEA0040324076
:1045200010434860608D88B3204659462A4604F0FF
:10453000D7FD00287FF443AF606A216810F8012B93
:104540008A626062608D01386085208D0138208527
:10455000618D0029E6D00004E4D1802100222046AC
:104560005B46009504F008FD00287FF428AF608DBD
:10457000B0F5807FCCD32068A4F828804168314012
:10458000394341EA09014160CCE700BF2046594662
:104590002A4604F065FD00287FF411AF2068202131
:1045A0004EF60003C161CFF6006342681A404260D4
:1045B00084F84110002084F8420084F8400001B0E3
:1045C000BDE8F08F0000000010B540F60044006820
:1045D000C5F60204A4F5F831884218BF10BD44F2B4
:1045E000F440C5F60200016821F0800101604FF43B
:1045F00080512046FFF78CFA4FF400512046BDE869
:104600001040FFF785BA000070B5B8B0044602A8A4
:1046100041F600450830B82100263796C5F600055A
:104620003696CDE934663396FCF7C8F92068A8427F
:1046300002D038B070BD00BF1020029002A80396CF
:1046400000F0C6FE08B1FDF7C7F844F2E04433A914
:10465000C5F60204206840F008002060206800F0E1
:104660000800019001984FF440503390122034908C
:104670000020CDE935000420379005F5F830FFF72C
:10468000D7FA606940F080006061606900F08000E6
:104690000190019838B070BD40F2140049F2C00199
:1046A000C2F20040C2F2024100780A681044086079
:1046B000704700000000000080B5032000F0A4FA5D
:1046C00001F0C2FD44F2184142F67003C5F6020142
:1046D000C0F601030A68C2F303229A5C096801F07C
:1046E0000F0102F01F02595CD04040F22002C2F2DA
:1046F000004201F01F0120FA01F1116040F21C019B
:10470000C2F2004108600F2000F00AF800281CBF28
:10471000012080BD00F024FA002080BD00000000D0
:10472000B0B540F21405C2F200452978F1B1044653
:1047300040F21C00C2F200404FF47A72B2FBF1F179
:104740000068B0FBF1F003F0FFFB0F2C01464FF0C7
:1047500001000AD8002918BFB0BD4FF0FF30002279
:10476000214600F021FA00206C60B0BD0120B0BDF0
:1047700090F8A030012B4FF0020331D02DE9F04129
:1047800034244FF0010880F8A08080F8A13002FBAB
:104790000403D1E900CED1E90267D1E90445C3E9B8
:1047A0001245C3E91067C3E90ECED1E906CED1E9BF
:1047B0000854D1E90A76C3E91876C3E91654C3E967
:1047C00014CE0F6B9F66044604F0F2FC20680023B1
:1047D000C0F8248084F8A18084F8A030BDE8F041BE
:1047E0001846704700000000002855D010B590F81A
:1047F000A11031B9002180F8A010044600F050F853
:104800002046022180F8A110D0E9001CD0E9023432
:104810008A6922F070428A6143EA0C0203692243EA
:104820001A438B691A438A61D0E9052343EA02429D
:104830008A60D0E9072343EA0242CA60D0E909232B
:1048400043EA02420A61D0E90B2343EA02424A6189
:1048500090F8352090F83630CC6A04F07F44CC6272
:104860001B0490F8344043EA0222CB6A22441A43E4
:10487000CA624A6B42F006024A638A6942F0010248
:104880008A610021C0F8A410012280F8A120BDE8AF
:1048900010400846704700BF01207047000000002C
:1048A0002DE9F047B8B0044602A80830B821002529
:1048B0003395CDE93655CDE93455FCF77FF841F213
:1048C00000012068C5F20001884203D038B0BDE87D
:1048D000F08700BF4FF00050029020200C904FF462
:1048E00096700D900420109002A803954FF00209D5
:1048F0004FF48068CDE90E99CDF84480139500F00F
:1049000067FD08B1FCF768FF44F2E04040F60004A0
:10491000C5F60200C5F6020433AD002741684FF02A
:104920000E0A41F008014160416801F0080101915F
:104930000199016841F480610160016801F48061BE
:1049400001910199016841F040010160016801F0A5
:10495000400101910199016841F400710160016811
:1049600001F4007101910199016841F004010160B5
:10497000016801F0040101910199016841F480711D
:104980000160016801F4807101910199016841F0B1
:1049900020010160016801F0200101910199016885
:1049A00041F002010160016801F0020101910199E9
:1049B000016841F0010101600068294600F0010032
:1049C000019001987620CDE9330904F50050CDF827
:1049D000DCA0CDE93577FFF72BF904F580564FF4CD
:1049E0000060CDE9330930462946CDE93577CDF869
:1049F000DCA0FFF71DF94FF480502946CDE93309BB
:104A0000092037903046CDE93577FFF711F947F2A5
:104A100077002946CDE9330904F5E050CDF8DCA054
:104A2000CDE93577FFF704F94FF400702946CDE959
:104A300033090A2037902046CDE93577FFF7F8F89B
:104A400040202946CDE933092046CDF8DCA0CDE948
:104A50003577FFF7EDF84FF440402946CDE93309AB
:104A600004F5C050CDF8DCA0CDE93577FFF7E0F8CC
:104A700004F540602946CDE93389CDE93577CDF895
:104A8000DCA0FFF7D5F840F603402946CDE933090D
:104A9000A4F58060CDF8DCA0CDE93577FFF7C8F844
:104AA00070202946CDE93309A4F50060CDF8DCA0DB
:104AB000CDE93577FFF7BCF838B0BDE8F0870000E6
:104AC00010B54EF6A05E4378CEF2000E90F800C00E
:104AD0004EF8083CDEF8003023F00103CEF8003039
:104AE00043684EF8043C037BC27A817A447B120609
:104AF00042EA0372837B42EAC141C27B41EA8441BC
:104B0000447A41EA4341007A41EA024141EA042100
:104B100041EA400040EA0C00CEF8000010BD000061
:104B20004EF62450CEF20000BFF35F8F016821F4EF
:104B30008031016000210167704700000000000023
:104B40004EF6245140F00100CEF2000108670868DB
:104B500040F480300860BFF34F8FBFF36F8F704712
:104B600081B044F2F440C5F60200016841F0020150
:104B70000160006800F002000090009801B07047EA
:104B8000002848BF704700F01F01012202FA01F11E
:104B90004EF20012C0F34A10CEF2000242F820108A
:104BA000704700000000000070B54EF60C5C4FF03E
:104BB000FF36CEF2000C00F1604505F56445DCF8E7
:104BC0000030C3F3022E8EF00703042B28BF04230A
:104BD000BEF1030406FA03F321EA030100F00F0318
:104BE00038BF0024043B0028634406FA04F048BFA1
:104BF00003F10C05A14022EA0000084300012870DF
:104C000070BD0000000000004EF60C514FF6FF038F
:104C1000CEF200010A681A4060F30A2242F0806076
:104C200040F0FD7008607047B0B544F60C05C5F65D
:104C3000020529684907296806D401F00701081A06
:104C400018BF0120B0BD00BF21F007010843286054
:104C5000FFF7FAF8044600BF55F8080C800407D4A3
:104C6000FFF7F2F8001BB0F57A7FF5D90120B0BD4F
:104C70000020B0BD0000000080B501F05DFA44F2F4
:104C8000204142F67002C5F60201C0F60102096831
:104C9000C1F30211515C01F01F01C84080BD00004A
:104CA00080B544F23041C5F6020151F8083C51F894
:104CB000082C51F804CCC2F3051E4A68BEF1000F5F
:104CC0001AD0C2F3CC0203F0030300EE102A9FEDCA
:104CD0003A1AB8EE400A20EE010A9FED381ADFE8D2
:104CE00003F00323110700BF51F8302C92060DD4B6
:104CF0009FED331A18E000BF00218160C0E9001168
:104D000080BD00BF9FED2F1A0EE000BF51F8302C80
:104D100049F20003C0F2D033C2F3C10223FA02F217
:104D200001EE102AB8EE411A0A689FED273A6FF398
:104D30005F2202EE102A5FEACC7203FE000A03EE45
:104D400010EA0A68B8EE422AC2F34622B8EE433AA5
:104D5000013230EE020AB7EE002A81EE031A30EE7D
:104D6000020A21EE000A01EE102AB8EE411A80EE86
:104D7000011ABCEEC11A80ED001A0A68C2F306429D
:104D8000013201EE102AB8EE411A80EE011ABCEE93
:104D9000C11A80ED011A0968C1F30661013101EE03
:104DA000101AB8EE411A80EE010ABCEEC00A10EEED
:104DB000101A816080BD00BF000000390024744AD1
:104DC0000024744C20BCBE4B00000000000000001A
:104DD00080B544F2384EC5F6020E5EF8103C5EF81F
:104DE000101C5EF80C2CC1F3053CDEF80410BCF17D
:104DF000000F19D0C9089FED3C1AD20601EAE271F2
:104E000003F003026FF35F3100EE101AB8EE400AB0
:104E1000DFE802F0022210225EF8381C89060DD469
:104E20009FED331A18E000BF00218160C0E9001136
:104E300080BD00BF9FED2D1A0EE000BF5EF8381C4C
:104E400049F20002C0F2D032C1F3C10122FA01F1ED
:104E500001EE101AB8EE411ADEF800109FED253A67
:104E60006FF35F2102EE101ADEF80010C1F3462145
:104E7000B8EE422A013100EE032A00EE10CAB7EE66
:104E8000003AB8EE400A81EE000A32EE031A20EE34
:104E9000010A01EE101AB8EE411A80EE011ABCEEBA
:104EA000C11A80ED001ADEF80010C1F3064101318D
:104EB00001EE101AB8EE411A80EE011ABCEEC11ACA
:104EC00080ED011ADEF80010C1F30661013101EE38
:104ED000101AB8EE411A80EE010ABCEEC00A10EEBC
:104EE000101A816080BD00BF0024744A20BCBE4BF4
:104EF0000024744C0000003980B544F2404EC5F6E1
:104F0000020E5EF8183C5EF8181C5EF8142CC1F313
:104F1000055CDEF80410BCF1000F19D0C9089FED44
:104F20003C1AD20501EAE27103F003026FF35F312C
:104F300000EE101AB8EE400ADFE802F0022210225A
:104F40005EF8401C89060DD49FED331A18E000BFAF
:104F500000218160C0E9001180BD00BF9FED2D1AC6
:104F60000EE000BF5EF8401C49F20002C0F2D032F1
:104F7000C1F3C10122FA01F101EE101AB8EE411A93
:104F8000DEF800109FED253A6FF35F2102EE101A54
:104F9000DEF80010C1F34621B8EE422A013100EEDE
:104FA000032A00EE10CAB7EE003AB8EE400A81EECE
:104FB000000A32EE031A20EE010A01EE101AB8EED2
:104FC000411A80EE011ABCEEC11A80ED001ADEF81B
:104FD0000010C1F30641013101EE101AB8EE411A7A
:104FE00080EE011ABCEEC11A80ED011ADEF8001045
:104FF000C1F30661013101EE101AB8EE411A80EEDC
:10500000010ABCEEC00A10EE101A816080BD00BF1C
:105010000024744A20BCBE4B0024744C00000039AC
:1050200010B584B0024641F6FF7300209B1A70EB66
:10503000010329DB40F2FF339B1A70EB010351DAC5
:1050400082F480630B4300F0E58082F400630B433D
:1050500000F00E8182F48052114340F0A98144F2A5
:105060000041C5F60201086DC0F30232042A00F2C5
:10507000988148F20000C0F2BB00DFE812F00D0199
:105080000F0127019901310147F6FF739B1A70EB5D
:10509000010353DA82F400430B4300F0DB8082F417
:1050A00080330B4300F0048182F40022114340F06E
:1050B0007F8144F20041C5F60201886DC0F30142D0
:1050C0000020DFE812F0EB0005000D01750100BFC4
:1050D0000868800040F1658101A8FFF70DFF039883
:1050E00004B010BD82F480730B4353D082F400727D
:1050F000114340F05D8144F20041C5F60201086DA4
:10510000C0F38212042A00F24C8148F20000C0F27F
:10511000BB00DFE812F0C100C300DB004D01050059
:10512000C86C0A68520700F04052086802D5002A8D
:1051300000F0DE80C00500F1EF80F7E082F400535C
:105140000B434FD082F48042114340F0318144F24E
:105150000044C5F60204A06DC0F30270052800F2F9
:105160002081DFE810F00700190103010D01F700AD
:10517000270100BF00F0E0FF216A42F67002C0F68E
:105180000102C1F30211515C01F01F01C84004B0DB
:1051900010BD00BF44F20041C5F60201086D00F0E9
:1051A0000702042A00F2FD8048F20000C0F2BB00B2
:1051B000DFE812F0720074008C00FE00060000BFF1
:1051C000C86C0A68520700F04052086802D5002AED
:1051D00000F08E80C00540F1A980B2F1805F00F040
:1051E0009E80A3E044F20040C5F60200016DC1F3C9
:1051F0000241052900F2D580DFE811F00600D00059
:10520000BA00C800AE00DE0004B0BDE8104000F0F7
:10521000BBBF00BF44F20041C5F60201886DC0F378
:105220004252042A00F2BD8048F20000C0F2BB00E6
:10523000DFE802F032344CBE040000BFC86C0A68DC
:10524000520700F04052086840F16480002A4FD0B5
:1052500060E000BF44F20041C5F60201086DC0F3F2
:1052600001720020DFE802F0021874A40868A4E0CC
:1052700044F20041C5F60201886DC0F30262042ABF
:1052800000F28F8048F20000C0F2BB00DFE802F0BD
:1052900004061E90280000BF086811E0086800019D
:1052A00040F17F8001A8FFF793FD019804B010BD85
:1052B00044F20040C5F60200C16C0068C90321D465
:1052C00080016ED501A8FFF7EBFC70E00868800054
:1052D00067D501A8FFF710FE019804B010BD00BF0C
:1052E000C86C0A68520700F04052086812D58AB9A3
:1052F000C0F3C10049F20001C0F2D03121FA00F040
:1053000004B010BD00014CD501A8FFF761FD039862
:1053100004B010BDC00509D5B2F1805F06D140F6DA
:105320000010C0F23D0004B010BD00BF0868B2F12B
:10533000005F00F400314FF0000004BF47F640006A
:10534000C0F27D10002908BF084604B010BD00BFA0
:10535000086824E0206800E0006840F60011C005FD
:10536000C0F23D0101EAE07004B010BD206800E029
:105370000068800015D501A8FFF7BEFD17E000BF4B
:10538000206840070DD52068B2E700BF01684907D3
:1053900007D50068ACE700BF206800E000680001A6
:1053A00002D4002004B010BD01A8FFF711FD02983F
:1053B00004B010BD206800E0006847F6400180039B
:1053C000C0F27D1101EAE07004B010BD00000000E1
:1053D0002DE9F0470446C07844F22C480007C5F692
:1053E000020828D5A06E4FEA305103292AD8DFE8F9
:1053F00001F0030B131B00BFD8F8001041F400317B
:10540000C8F8001010E000BF04F10800022107F006
:10541000D7FD064680B906E004F12800022107F016
:1054200063FE064640B9A06ED8F8241021F440115E
:105430000843C8F8240000266078C00706D1354626
:105440002FE000BF01266078C007F8D0A06D0428C7
:1054500058D83546DFE800F004140E0B0B0000BFEF
:10546000D8F80000354640F40030C8F800002F4658
:10547000C5B90DE004F12800002107F035FE04E075
:1054800004F10800002107F09BFD05462F464DB9A9
:10549000D8F82400A16D20F0070000250843C8F8C3
:1054A000240037466078800731D5E06D4FEAB010B0
:1054B00004285FD8DFE800F004140E0A0A0000BFD9
:1054C000D8F8000040F40030C8F800002E46FDB9BE
:1054D0000EE000BF04F12800002107F005FE04E003
:1054E00004F10800002107F06BFD05462E467DB94A
:1054F000D8F82400E16D20F4E07000250843C8F8D6
:10550000240004E00125012760788007CDD43E46C1
:105510006078400733D5D4F8A8004FEA70500428CB
:1055200060D8DFE800F003130D090900D8F8000087
:1055300040F40030C8F80000A9460DBB0EE000BFE3
:1055400004F12800002107F0CFFD04E004F1080079
:10555000002107F035FD0546A9468DB9D8F82C0085
:10556000D4F8A81020F4600000250843C8F82C00E7
:1055700005E000BF0125012660784007CBD4B14685
:105580006078000734D5D4F8AC004FEA30600428C6
:105590005ED8DFE800F003130D090900D8F8000019
:1055A00040F40030C8F800002F4615BB0EE000BFE5
:1055B00004F12800002107F097FD04E004F1080041
:1055C000002107F0FDFC05462F4695B9D8F82C00C0
:1055D000D4F8AC1020F0E06000250843C8F82C0097
:1055E00006E000BF01254FF0010960780007CAD42A
:1055F0004F46E078800730D5E06C4FEA3010032842
:1056000020D8DFE800F00903150900BFD8F8000032
:1056100040F40030C8F800002E46ADB9D8F820009C
:10562000E16C20F0300000250843C8F8200014E0A9
:1056300004F10800022107F0C3FC05462E461DB9FF
:10564000ECE700BF012501266078C00609D434E0EC
:1056500001250127E0788007CED43E466078C00659
:105660002BD5206E4FEA3030042839D8DFE800F01F
:1056700004140E0A0A0000BFD8F8000040F40030FD
:10568000C8F800002F46CDB90EE000BF04F1280095
:10569000002107F029FD04E004F10800002107F0D3
:1056A0008FFC05462F464DB9D8F82400216E20F412
:1056B000E04000250843C8F824003746607880069B
:1056C00035D5606E4FEA3040052815D8DFE800F088
:1056D000041A0E04040400BF2E46DDB91EE000BF0C
:1056E0000125012760788006EBD420E004F1280032
:1056F000012107F0F9FC0AE0012501266078400647
:1057000019D449E004F10800012107F059FC0546CD
:105710002E461DB1607840060DD43DE0D8F8240037
:10572000616E20F4E02000250843C8F824003E46BE
:105730006078400630D5D4F8B0004FEA30700528C4
:105740000ED8DFE800F00313070303032F46ADB9BB
:1057500018E000BF04F12800012107F0C5FC0AE0B1
:1057600001250127607800061AD43CE004F1080006
:10577000012107F025FC05462F461DB16078000683
:105780000ED430E0D8F82C00D4F8B01020F0E0406F
:1057900000250843C8F82C0037466078000622D55B
:1057A000206F58B1B0F1005F0CD0B0F1805F37D1FD
:1057B000D8F8000040F40030C8F800002E469DB92B
:1057C00008E000BF04F10800012107F0F9FB0546DD
:1057D0002E464DB9D8F82400216F20F04050002506
:1057E0000843C8F824003E46E078C0071DD0A06CEE
:1057F000032855D8DFE800F008024A08D8F800006E
:1058000040F40030C8F80000A9467DB9D8F820005F
:10581000A16C20F0030000250843C8F8200004E034
:1058200001250126E078C007E1D1B146A078400605
:1058300002D44F4618E000BFD8F8D40340F480707B
:10584000C8F8D403FEF700FB064600BFD8F8D4031F
:10585000C00507D4FEF7F8FA801B6428F6D90325A3
:10586000032701E02F46FDB12078C00700F06F80CC
:10587000E06F4FEAF00005284ED8DFE800F0035350
:1058800047030303002D2E4654D157E004F10800CE
:10589000022107F095FB0546002DA946C6D1B5E7C4
:1058A00001254FF00109C1E7D8F84410D4F8B4003D
:1058B000414011F4407F11D0D8F84410D8F844206A
:1058C00042F48032C8F84420D8F8442021F44071D2
:1058D00022F48032C8F84420C8F84410B0F5807F24
:1058E00040F0E082FEF7B0FA064641F2883A03251E
:1058F000032700BFD8F84400800700F1D182FEF7EB
:10590000A3FA801B5045F5D9AEE700BF04F128008B
:10591000012107F0E9FB0AE0012501262078800734
:1059200019D446E004F10800012107F049FB0546BF
:105930002E461DB1207880070DD43AE0D8F8280013
:10594000E16F20F0380000250843C8F828003E46E3
:10595000207880072DD5A06F05280FD8DFE800F04C
:1059600004140804040400BF2F46ADB918E000BFBA
:1059700004F12800012107F0B7FB0AE00125012707
:105980002078400719D447E004F10800012107F00E
:1059900017FB05462F461DB1207840070DD43BE08C
:1059A000D8F82800A16F20F0070000250843C8F8A8
:1059B00028003746207840072ED5D4F894000528D3
:1059C0000ED8DFE800F00313070303032E46ADB93A
:1059D00018E000BF04F12800012107F085FB0AE070
:1059E00001250126207880061AD44BE004F1080036
:1059F000012107F0E5FA05462E461DB12078800604
:105A00000ED43FE0D8F82C00D4F8941020F0070012
:105A100000250843C8F82C003E462078800631D582
:105A2000D4F890004FEA307005280FD8DFE800F076
:105A300004140804040400BF2F46ADB918E000BFE9
:105A400004F12800022107F04FFB0AE0012501279D
:105A5000207840061AD44BE004F10800002107F03A
:105A6000AFFA05462F461DB1207840060ED43FE020
:105A7000D8F82800D4F8901020F0E0400025084322
:105A8000C8F8280037462078400631D5D4F89C0065
:105A90004FEAB02005280FD8DFE800F0041408040E
:105AA000040400BF2E46ADB918E000BF04F1280081
:105AB000022107F019FB0AE00125012620780006E3
:105AC0001AD44EE004F10800002107F079FA0546E7
:105AD0002E461DB1207800060ED442E0D8F82C00E6
